:400000000080002011000000490400004904000080B500AF024B034A12681A6000F018FABC760040FA46004010B5054C237833B9044B13B10448AFF300800123237010BD6D
:400040003881FF1F000000004C3B000008B5064B1BB106480649AFF300800648036813B1054B03B1984708BD000000004C3B00003C81FF1F0881FF1F0000000080B400AF78
:40008000034B01221A70BD465DF8047B704700BF6F81FF1F80B500AF044B01221A70044B1B781846012100F0E9FC80BD7081FF1FD4ADFF1F80B500AF00F058FF01F0A6F92D
:4000C00001F0D8F900F082F8334801F0D9FD334801F030FE022001F0B1F90120012101F085FF0420012101F081FF0320012101F031FF3020012101F02DFF0020012101F0A4
:4001000029FF0220012101F071FF0820012101F06DFF0C20012101F01DFFC020012101F019FF0120012101F015FF62B601F002FF1B4B00221A701B4B10221A701A4B0122D7
:400140001A701A4B1B78DBB2012B24D1184819490022012302F0BEF9174B1B68154817491A4603F065F9164B1B781846012100F085FC114B1B6811481946124A124B02F024
:4001800015F80A4B00221A7001F0C8FD044B1A78044B1A70D5E7D4E77D000000950000006D81FF1F6C81FF1F1081FF1F6F81FF1FD4410000A091FF1F0C81FF1FA4A9FF1FEA
:4001C000D1ADFF1F6481FF1F6881FF1F80B500AF022001214FF480424FF4804301F056FF03461A468A4B1A7000F060FD03461A46884B1A7000F05AFD03461A46854B5A70FB
:40020000844B1A78834B5B78104602211A46202300F07AFD7F4B5A787E4B1B78104602211A46042300F070FD7A4B1B78184644F610614CF2A07200F09FFD764B5B781846B5
:4002400044F610614CF2A47200F096FD704B1A78704B1B781046194600F0C2FC6C4B1B781846012100F00AFC0220002141F6FF7241F6FF7301F0D4FC03461A46664B1A7005
:4002800000F014FD03461A46644B1A70634B1B7818464FF40061FE22072300F035FD5F4B19785F4B9AB25F4B9BB2084611461A4600F062FD584B1A78584B1B781046194610
:4002C00000F08EFC544B1B781846012100F0D6FB022001214FF4804241F6FF7301F07CFA03461A46504B1A7000F0E0FC03461A464E4B1A704D4B1A784C4B1B7810464FF465
:4003000000611A46062300F0FFFC484B1A78444B9BB210464CF2A8711A4600F02DFD424B1A78424B1B781046194600F059FC3E4B1B781846012100F0A1FB022001214FF4D8
:40034000804241F6FF7301F001FF03461A46384B1A7000F0ABFC03461A46364B1A70354B1A78344B1B7810464FF400611A46062300F0CAFC2F4B1A782F4B9BB210464CF25C
:40038000AC711A4600F0F8FC294B1A78294B1B781046194600F024FC254B1B781846012100F06CFB0220002141F6FF7241F6FF7301F09CFE03461A46204B1A7000F076FC11
:4003C00003461A461E4B1A701D4B1B7818464FF40061FE22072300F097FC194B1978164B9AB2184B9BB2084611461A4600F0C4FC124B1A78124B1B781046194600F0F0FB21
:400400000E4B1B781846012100F038FB80BD00BFCAADFF1FC8ADFF1FD1ADFF1FCCADFF1FD8B9FF1FD8C1FF1FD5ADFF1F8481FF1FA099FF1FD0ADFF1FD8B1FF1FD4ADFF1F75
:40044000D8C9FF1FA089FF1F80B400AFFEE700BF80B586B000AF224B7B61224B3B61204B7B6135E03B691B68FB603B695B68BB603B699B683B6000237B600CE0FB681A6812
:40048000BB681A60BB680433BB60FB680433FB607B6804337B607A683B689A42EED13B69DB683B6000237B6008E0BB6800221A60BB680433BB607B6804337B607A683B680A
:4004C0009A42F2D13B6910333B617B69013B7B617B69002BC6D103F001FBFFF7EBFDFEE701000000E846000080B582B000AF184B184A1A60184B184A126842F400721A60A1
:4005000000237B600FE07B68032B04D8134B7A6853F8223000E0124B124A796842F821307B6801337B607B682F2BECD90E4B1B78DAB20E4B1A700E4B0A4A1A6000F0A2F9FE
:4005400000F06EFA0B4B00221A600837BD4680BD0CED00E00004FA0514ED00E000000000490400000080FF1FBC7600400481FF1F08ED00E00081FF1F80B582B000AF786093
:400580003960786800213A6803F0D7FA0837BD4680BD00BF80B584B000AFF860B9607A60F868B9687A6803F0BFFA1037BD4680BD80B487B000AF7860396000233B61002397
:4005C0007B6126E07B699B007A6813441B68BB60BB68FB73BB6823F0FF03BB6013E03B695B003A6813441B781A46BB6813443A69520039680A4452781A703B6901333B61DB
:40060000FB7B013BFB73FB7B002BE8D17B6901337B617B69102BD5D91C37BD465DF8047B704700BF80B582B000AF4A4B00221A80494B50221A70494849490422FFF7AAFF00
:40064000484B02221A704FF0402308221A70464B45F20E521A80454B05221A70434B1B7843F2C8237B6006E04FF4F07000F0C4F97B68013B7B607B68002B06D03B4B1B7897
:40068000DBB2DBB25BB2002BEEDB394B394A1278D2B21A70384B05221A70384B00221A80374B40F212221A804FF0402309221A70344B41F251221A800023FB7019237B60D0
:4006C00014E0FB785B00DAB22F4B1B78DBB203F00103DBB21343DBB203F00303FB704FF4F07000F089F97B68013B7B607B68002B02D0FB78032BE4D1204B07221A70234B76
:4007000000221A70224B48221A701C4B00221A70204B02221A70204B04221A701F4B1F4A1278D2B242F00102D2B21A701C4B1C4A1278D2B242F00102D2B21A70194B194A5C
:400740001278D2B262F07F02D2B21A700837BD4680BD00BF804000408240004000410040EC000048004300401242004010420040A14600400C010049004200400440004069
:400780002242004020420040254200400640004008400040014000400B400040A2430040A1430040A043004080B483B000AF0E4B1B78FB710D4BFA7902F00702D2B21A7084
:4007C0000B4BFA791209D2B21A700A4B01221A70094B10221A70094B44221A700C37BD465DF8047B704700BFCF0100496E5800406F5800400D510040005B004076580040B4
:4008000080B483B000AF0346FB71FB79012B0ED8FA79094B53F82230F979074A52F821201178FA790548825C0A43D2B21A700C37BD465DF8047B7047503B0000583B000044
:4008400080B483B000AF0346FB71FB79012B10D8FA790A4B53F82230F979084A52F821201178FA790648825CD243D2B20A40D2B21A700C37BD465DF8047B7047503B0000FC
:40088000583B000080B582B000AF72B6414B01221A70FFF7C7FE404B3F4A1278D2B242F00402D2B21A700023FB7113E0FA7913465B0013445B00394A13443B603B681A6816
:4008C0003B689B889BB210461946FFF755FEFB790133FB71FB79082BE8D94FF090403049FFF766FE2F4B0A221A702F480421FFF743FE2E482E490422FFF74CFE2D482E4947
:400900000422FFF747FE2D482D490422FFF742FE2C482D490422FFF73DFE2C4B2B4A1278D2B242F00202D2B21A70294B284A1278D2B242F00202D2B21A70264B254A1278EE
:40094000D2B242F04002D2B21A70234B224A1278D2B242F01002D2B21A70204820490822FFF718FE1F4820490822FFF713FE1F4B1E4A1278D2B242F00802D2B21A70FFF70F
:4009800013FF1B4813490E22FFF704FE0837BD4680BD00BF00480040E84600405C3B000044000048835800400076004050760040F000004808760040F400004840760040E8
:4009C000F800004848760040FC0000480350014013500140A0430040C243004002510040DC00004822510040E400004822430040B0430040000000000230800800F0058038
:400A000000BF013800467FF4FCAF7047EFF3108072B6704780F31088704700BFAFF3008080B483B000AF134B7F221A70124B80221A707F23FB710CE0FB79DB0003F1804387
:400A400003F5F043FA79013AD2B21A70FB79013BFB71FB79002BEFD1FB79DB0003F1804303F5F04300221A700C37BD465DF8047B704700BF1581FF1F1481FF1F80B485B0D7
:400A800000AF02460B46FA71BB710123FB60FB79172B2FD8BB79002B0ED0FB791A01194B1344FA791101174A0A441278D2B242F02002D2B21A700DE0FB791A01114B1344C1
:400AC000FA7911010F4A0A441278D2B222F02002D2B21A70FB791A010A4B1344FA791101084A0A441278D2B242F00102D2B21A700023FB60FB6818461437BD465DF8047B68
:400B0000704700BF1070004080B485B000AF02460B46FA71BB710123FB60FB79172B18D8FB791A010E4B13441B78DBB223F00E03FB72FB791A010A4B1344BA7902F00702B9
:400B4000D2B25200D1B2FA7A0A43D2B21A700023FB60FB6818461437BD465DF8047B70471070004080B485B000AF13460246FA710A46BA807B800123FB60BA8841F6FF7362
:400B80009A4202D14FF40053BB807A8841F6FF739A4202D14FF400537B80FB79172B17D8FB79DB0003F1804303F5EC430433BB60BB68BA881A80FB79DB0003F1804303F5A9
:400BC000EC430633BB60BB687A881A800023FB60FB6818461437BD465DF8047B704700BF80B485B000AF02460B46FA71BB710123FB60FB79172B07D8FB791A01064B134449
:400C0000BA795A720023FB60FB6818461437BD465DF8047B704700BF1070004080B485B000AFF871B9717A713B710123FB60FB79172B34D8FB79DB0003F1804303F5EC436E
:400C4000BA7902F07F02D1B27A79D201D2B20A43D2B21A70FB79DB0003F1804303F5EC433A7E1201D1B23A7902F00F02D2B20A43D2B25A70FB79DB0003F1804303F5EC4329
:400C80003A7F02F00F02D2B29A70FB79DB0003F1804303F5EC430022DA700023FB60FB6818461437BD465DF8047B704780B582B000AFFF23FB71FFF7A9FE0346BB71104B28
:400CC0001B78182B12D90F4B1B78FB710C4B1B78013BDAB20A4B1A70FB79DB0003F1804303F5F0431B78DAB2064B1A70BB791846FFF790FEFB7918460837BD4680BD00BFF8
:400D00001481FF1F1581FF1F80B485B000AFF871B980BA71FB700123FB60FB795BB2002B23DBBB8823F47F6323F00F039BB2002B1BD1FB79DB0003F1804303F5F043BB60C2
:400D4000BB68BA881A80FB79DB0003F1804303F5F043BA799A70FB79DB0003F1804303F5F043FA78DA700023FB60FB6818461437BD465DF8047B704780B485B000AF134690
:400D80000246FA710A46BA807B800123FB60FB795BB2002B17DBFB79DB0003F1804303F5F0430433BB60BB68BA881A80FB79DB0003F1804303F5F0430633BB60BB687A88B2
:400DC0001A800023FB60FB6818461437BD465DF8047B704780B483B000AF0346FB7101BE0C37BD465DF8047B704700BF80B582B000AF786008E00C4B1B681846FFF7FCFD2A
:400E00007B68A3F500437B607B68B3F5004FF2D8064B1B687A6802FB03F31846FFF7ECFD0837BD4680BD00BF2881FF1F2081FF1F80B582B000AF0346FB80FB88044A127896
:400E400002FB03F31846FFF7D7FD0837BD4680BD2481FF1F80B584B000AF03463960FB710F4B1B68FB60FB791F2B02D90020FFF7B1FFFB7903F01F0310339B00FA681344F8
:400E80001B68BB60FB7903F01F0310339B00FA6813443A681A60BB6818461037BD4680BD08ED00E080B582B000AF02460B46FA71BB71BB79072B02D90020FFF78BFFFB79E0
:400EC0001F2B02D90020FFF785FFFB7903F01F0303F1604303F56443BA795201D2B21A700837BD4680BD00BF80B500AF2820FFF77DFF032000F020F90520FFF777FF032024
:400F000000F01AF90F20FFF771FF032000F014F90120FFF76BFF022000F00EF90520FFF765FF062000F032F80E2000F02FF82C2000F02CF8082000F029F8012000F026F893
:400F40000C2000F023F8032000F020F80520FFF74DFF80BD80B500AF0C2000F017F8024B01221A7080BD00BF7481FF1F80B500AF054B1B78002B04D1FFF7B6FF024B012271
:400F80001A70FFF7E7FF80BD7581FF1F80B584B000AF0346FB7100F013F8FB791B09FB73FB7B184600F0C8F8FB7903F00F03FB73FB7B184600F0C0F81037BD4680BD00BF7F
:400FC00080B582B000AF4FF4CA737B60554B554A1278D2B222F07F02D2B21A70524B1B78DBB223F00F03FB704F4BFA7842F00F02D2B21A704D4B1B78DBB223F00F03FB70A0
:401000004A4BFA781A704A4B1B78DBB223F00F03FB70474BFA781A70424B424A1278D2B222F02002D2B21A703E4B3E4A1278D2B242F04002D2B21A700020FFF7F9FE394BB1
:40104000384A1278D2B242F01002D2B21A700120FFF7EEFE374B1B78FB70324B314A1278D2B222F01002D2B21A700020FFF7E0FEFB7803F00803FB702A4B2A4A1278D2B20C
:4010800042F01002D2B21A700120FFF7D1FE254B244A1278D2B222F01002D2B21A70FB78002B02D10A20FFF7C3FE7B68013B7B60FB78002B02D07B68002BBDD1194B194ABB
:4010C0001278D2B222F04002D2B21A70154B154A1278D2B222F07F02D2B21A70124B124A1278D2B222F00F02D2B21A700F4B1B78DBB223F00F03FB700C4BFA7842F00F0204
:40110000D2B21A700A4B1B78DBB223F00F03FB70074BFA7842F00F02D2B21A700837BD4680BD00BF205100402251004023510040245100402151004080B582B000AF03466B
:40114000FB71144B134A1278D2B222F06002D2B21A70104B0F4A1278D2B222F00F02D2B21A700C4B0B4A1278D1B2FA790A43D2B242F01002D2B21A700120FFF759FE054BB7
:40118000044A1278D2B222F01002D2B21A700837BD4680BD2051004080B582B002AF324B01221A70314B00221A70102000F02AFC102000F00BFD1D200721FFF773FE2C4B56
:4011C00004221A702B4B00221A702B4B00221A702A4B2A4A1278D2B242F01802D2B21A70274B00221A70274B00221A70264B00221A70264B0A221A70254B00221A70254B9E
:4012000000221A70244B5B221A70244B5E221A70234B00221A70234B14221A7001230093022048F6F0514FF40042102300F0E4F91D4A0D4B1B78DBB2013B1C499B000B4484
:401240009B7813701A4B084A1278D2B2511E174A32F821201A80044B1B78DBB2184600F019F9BD4680BD00BF2C81FF1F7881FF1F96580040975800409E580040075B004059
:4012800093580040885B0040895B004080580040815800408358004088580040895800408D580040014E00400E4E00407C81FF1F0C4E004080B582B000AFFFF7A7FB034633
:4012C000FB71444B1B78BB71434B434A1278D2B242F00102D2B21A703F4B3F4A1278D2B242F01002D2B21A703C4B3C4A1278D2B242F00102D2B21A70384B384A1278D2B2E4
:4013000042F01002D2B21A70354B354A1278D2B242F00202D2B21A70324B324A1278D2B242F00202D2B21A702F4B2F4A1278D2B242F00302D2B21A700320FFF779FD284B77
:40134000274A1278D2B222F00202D2B21A70254B244A1278D2B222F00202D2B21A70234B224A1278D2B242F00602D2B21A70204B7A221A701F4B1F4A1278D2B242F00102E3
:40138000D2B21A701C4B1C4A1278D2B242F00102D2B21A70194B194A1278D2B242F00102D2B21A70164B164A1278D2B242F00102D2B21A70134B4FF000521A60124B4FF0D2
:4013C00000521A60FB791846FFF724FB0837BD4680BD00BF2C81FF1FAA430040BA430040F8460040F9460040915800407758004082580040A1430040B1430040A2430040FB
:40140000B243004080E200E000E100E080B500AF084B1B78002B09D1074B1B78DBB2002B01D1FFF7B9FE034B01221A70FFF742FF80BD00BF7A81FF1F7B81FF1F80B485B0BF
:4014400000AF0346FB710A4B1B78DBB223F00303FB73FB7903F00303DAB2FB7B1343FB73034BFA7B1A701437BD465DF8047B7047144E004080B400AF054B054A1278D2B281
:4014800042F00102D2B21A70BD465DF8047B7047004E004080B582B000AF0346FB71384B00221A70FB79012B66D1364B38221A70354B04221A70354B06221A70344B002294
:4014C0001A70344B00221A70334B3F221A70334B00221A70324B00221A70324B00221A70314B01221A70314B50221A70304B0A221A70304B2C221A702F4B00221A702F4B8D
:4015000044221A702E4B48221A702E4B01221A702D4B02221A702D4B12221A702C4B28221A702C4BEB221A70522000F013F92A4B58221A70294B00221A70294B02221A704A
:40154000284B02221A70284B00221A70274B00221A70002000F088F9254B43F233321A600920012100F094F92820012100F074FA1D202049FFF76EFC0837BD4680BD00BF24
:401580007981FF1F004E0040024E0040034E0040044E0040054E0040064E0040084E0040094E00400A4E0040144E0040845800408558004086580040875800408A580040AC
:4015C0008B5800408C5800408E5800408F580040905800409158004094580040955800409A5800409B5800409C5800409D580040DCC9FF1FCD17000080B586B000AFF871B5
:40160000B9807A80BB7197F82030002B00F08A8097F82030012B00F28580FB79013B092B4AD801A252F823F051160000B9160000B916000051160000B9160000B916000035
:401640006B16000085160000B91600009F160000BB790F2B04D9364B1B78DBB2FB752EE0344B1B78DBB2FB7529E0BB790F2B04D9314B1B78DBB2FB7521E0304B1B78DBB255
:40168000FB751CE0BB790F2B04D92D4B1B78DBB2FB7514E02B4B1B78DBB2FB750FE0BB790F2B04D9284B1B78DBB2FB7507E0274B1B78DBB2FB7502E00023FB7500BFBA88D5
:4016C00097F917305B0113443B617B883A6902FB03F3FB60FB68DB0BBB82BB790D2B11D8BA8ABB79C3F10E0342FA03F3BB8297F82030013BBA790132D2B215499B000B44FC
:401700009A7007E097F82030013B114A9B0013440F229A7097F820305A1E0D4BB98A23F8221002E00020FFF755FB1837BD4680BD180100491C010049190100491D0100496D
:401740001A0100491E0100491B0100491F0100497C81FF1F80B584B000AF0346FB71FFF755F90346FB73164B154A1278D2B242F00302D2B21A70134B124A1278D2B242F0DF
:401780000302D2B21A70104BFA791A700320FFF74FFB0B4B0A4A1278D2B222F00302D2B21A70084B074A1278D2B222F00302D2B21A70FB7B1846FFF72DF91037BD4680BD30
:4017C000F8460040F94600409258004080B400AFBD465DF8047B704780B584B002AFF871B971BA807B80134B08221A70114B1978FA79BB79002000900020019008461146C3
:401800001A460823FFF70AFA0A4B1978BA887B88084611461A46FFF7A5F9064B1B7818460321FFF771F9034B1B7818460837BD4680BD00BF2D81FF1F80B582B000AF002317
:40184000FB7106E0FB791846FEF7FAFFFB790133FB71FB79012BF5D9024BFF221A700837BD4680BD2E81FF1F80B582B000AF0346FB71FFF7E1FFFB791846FEF7C1FF034B1A
:40188000FA791A700837BD4680BD00BF2E81FF1F80B584B000AF02460B46FA807B7100F0CBF80346FB7300F0A1F80346BB81FA88BB899A4200F08780444B1B78DBB203F056
:4018C0000103FB72FB7B002B20D1BB89002B02D0FB88002B1AD1BB89002B0BD13C4BFA881A803C4B3B4A1278D2B222F04002D2B21A7068E0374B374A1278D2B242F04002D4
:40190000D2B21A70324BFA881A805CE0FB7A002B33D0314B00221A70304B01221A70304B00221A702F4B2F4A1278D2B202F07F02D2B21A70274B1B78DBB203F00803002B6D
:4019400002D0FB88002B18D1274BBA891A80224B07221A7000BF204B1B78DBB203F00103002BF8D1194B194A1278D2B222F00102D2B21A70184B00221A70144B1B78DBB2D4
:4019800003F00103002B13D0174BFA881A80124A7B79002B01D0032300E00123137000BF0D4B1B78DBB203F00103002BF8D10AE0074BFA881A80054B044A1278D1B2FA7A12
:4019C0000A43D2B21A701037BD4680BDA24300408040004082400040014000401040004014400040084000400240004080B400AF034B1B889BB21846BD465DF8047B704722
:401A00008040004080B483B000AF0346FB71094B084A1278D2B2D1B2FA7922F00702D2B20A43D2B2D2B21A700C37BD465DF8047B704700BF8240004080B400AF054B1B785B
:401A4000DBB203F00703DBB21846BD465DF8047B704700BF8240004080B584B000AF02460B46FA807B7100F0CBF80346FB7300F0A1F80346BB81FA88BB899A4200F087807A
:401A8000444B1B78DBB203F00103FB72FB7B002B20D1BB89002B02D0FB88002B1AD1BB89002B0BD13C4BFA881A803C4B3B4A1278D2B222F04002D2B21A7068E0374B374AF2
:401AC0001278D2B242F04002D2B21A70324BFA881A805CE0FB7A002B33D0314B00221A70304B01221A70304B00221A702F4B2F4A1278D2B202F07F02D2B21A70274B1B78E0
:401B0000DBB203F00803002B02D0FB88002B18D1274BBA891A80224B07221A7000BF204B1B78DBB203F00103002BF8D1194B194A1278D2B222F00102D2B21A70184B002265
:401B40001A70144B1B78DBB203F00103002B13D0174BFA881A80124A7B79002B01D0032300E00123137000BF0D4B1B78DBB203F00103002BF8D10AE0074BFA881A80054B16
:401B8000044A1278D1B2FA7A0A43D2B21A701037BD4680BDA14300400041004002410040014000401440004010400040084000400240004080B400AF034B1B889BB218461E
:401BC000BD465DF8047B70470041004080B483B000AF0346FB71094B084A1278D2B2D1B2FA7922F00702D2B20A43D2B2D2B21A700C37BD465DF8047B704700BF02410040D0
:401C000080B400AF054B1B78DBB203F00703DBB21846BD465DF8047B704700BF0241004080B584B002AFF871B971BA807B80134B00221A70114B1978FA79BB790020009069
:401C400000200190084611461A460023FEF7E6FF0A4B1978BA887B88084611461A46FEF781FF064B1B7818460021FEF74DFF034B1B7818460837BD4680BD00BF2F81FF1F1D
:401C800080B582B000AF786000F03CF8786800F009F8062000F018F800F028F80837BD4680BD00BF80B485B000AF7860054B1B68FB60FB6840337A681A601437BD465DF8DA
:401CC000047B704708ED00E080B483B000AF0346FB71054BFA795201D2B21A700C37BD465DF8047B704700BF00E400E080B400AF034B01221A60BD465DF8047B704700BF7B
:401D000000E100E080B400AF034B01221A60BD465DF8047B704700BF80E100E080B400AF034B01221A60BD465DF8047B704700BF80E200E080B582B000AF786000F03CF817
:401D4000786800F009F8072000F018F800F028F80837BD4680BD00BF80B485B000AF7860054B1B68FB60FB6844337A681A601437BD465DF8047B704708ED00E080B483B0B4
:401D800000AF0346FB71054BFA795201D2B21A700C37BD465DF8047B704700BF01E400E080B400AF034B02221A60BD465DF8047B704700BF00E100E080B400AF034B022214
:401DC0001A60BD465DF8047B704700BF80E100E0F8B500AF354B354A1278D2B242F01002D2B21A70324B324A1278D2B222F00102D2B21A702F4B3F221A702F4B3F221A702C
:401E00002E4A2F4B11461A464FF48073084611461A4601F089FE2B4A294B11461A464FF48073084611461A4601F07EFE264A274B11461A464FF48073084611461A4601F039
:401E400073FE234A234B11461A464FF40073084611461A4601F068FE1F4A204B11461A464FF40073084611461A4601F05DFE1C4B1C4A14461E4604F1400E35462346186889
:401E800059689A68DB680FC5103410367445F4D1094B00221A70002000F0D0F8052000F0E1F8114BF8221A70F8BD00BFA643004080C7004088C700408CC7004000C4004030
:401EC000943B000000C5004000C60040D440000000C00040943C000000C20040943E000000C700409440000084C7004080B400AF0D4B0D4A1278D2B242F01002D2B21A70F8
:401F00000A4B0A4A1278D2B242F01002D2B21A70074B074A1278D2B242F00102D2B21A70BD465DF8047B7047A6430040B643004080C7004080B500AF054B1B78002B04D166
:401F4000FFF746FF024B01221A70FFF7CFFF80BD8081FF1F80B483B000AF02460B46FA71BB71FB79002B1AD11F4B1F4A1278D2B222F03302D2B21A701B4B1B4A1278D1B22E
:401F8000BA790A43D2B21A70174B174A1278D1B2BA791201D2B20A43D2B21A701EE0FB79012B1BD1104B104A1278D2B202F03302D2B21A700C4B0C4A1278D1B2BA7992009D
:401FC000D2B20A43D2B21A70074B074A1278D1B2BA799201D2B20A43D2B21A700C37BD465DF8047B704700BFB0C7004080B483B000AF02460B46FA71BB71BB79012B08D1E7
:402000000D4B0D4A1278D1B2FA790A43D2B21A700CE0BB79002B09D1074B074A1278D1B2FA79D243D2B20A40D2B21A700C37BD465DF8047B704700BFB4C7004080B483B02B
:4020400000AF0346FB71FB7903F01F03FB71044BFA791A700C37BD465DF8047B704700BF98C7004080B483B000AF0346FB71FB7903F00F03FB71044BFA791A700C37BD464A
:402080005DF8047B704700BF9CC7004080B584B002AFF871B971BA807B80134B0A221A70114B1978FA79BB790020009000200190084611461A460A23FEF7B0FD0A4B19788E
:4020C000BA887B88084611461A46FEF74BFD064B1B7818460321FEF717FD034B1B7818460837BD4680BD00BF3081FF1F80B584B002AFF871B971BA807B80134B01221A70B1
:40210000114B1978FA79BB790020009000200190084611461A460123FEF780FD0A4B1978BA887B88084611461A46FEF71BFD064B1B7818460221FEF7E7FC034B1B78184656
:402140000837BD4680BD00BF3181FF1F80B584B002AFF871B971BA807B80134B09221A70114B1978FA79BB790020009000200190084611461A460923FEF750FD0A4B19780E
:40218000BA887B88084611461A46FEF7EBFC064B1B7818460221FEF7B7FC034B1B7818460837BD4680BD00BF3281FF1F2DE9F00F01F1FF3982B05FEA990A019300F10208B2
:4021C000B0F800C05BD0002440465546042367462646B0F90040B0F902B03FB2A3F1030CBC42C8BF6646BC42B8BF3C46A3F1020CB0F904705C45A8BFB4465C45B8BF5C464C
:40220000B0F9066003F1FF3BBC42B8BFDC46BC42B8BF3C46B442ACBF27463746B442ACBF66461E46013DBFB203F1040300F10800CFD1BC46344608EBCA0819F0030916D098
:40224000C9EB01010023604601E01FFA8CF038F9025B00B2CE180133A842ACBF8446AC468542C8BF34464B451FFA8CFCEDD1019BA2F800C01C6002B0BDE8F00F704754462E
:40228000DBE700BF2DE9F04F00EB410385B0490801900393029200917CD094460433021D0D4652F8046C53F8041C46F34E0041F34E047614491480B2A4B240EA064044EA39
:4022C00001440FFA80FE0FFA84F85CF8046BC8EB0E01271401F30F0189B2C7EB204707F30F0741EA07474FEA27490FFA86FB09FB0BFB0FFA87FA37B251460AFB07FA361455
:4023000001FB16B109FB06A64FEA680808EB6E0E6414090C1FFA8EFE04EB604009044EEA004041EA1641013D42F8040C03F1040343F8081C02F10402B3D101980099029A1D
:40234000022300F087F90099029A0223039800F081F99DE80A0003EBC1069A1C32F9025CB3F90240B3F90400B3F906106D0064004000490022F8025C083323F8064C23F8F1
:40238000040C23F8021CB34202F10802E6D105B0BDE8F08F022300F05DF903980099029A022305B0BDE8F04F00F054B92DE9F04F00EB410385B04908019003930292009106
:4023C0007CD090460433021D0D4652F8046C53F8041C46F34E0041F34E047614491480B2A4B240EA064044EA01440FFA80FE0FFA84FC58F8046BCCEB0E01271401F30F01BA
:4024000089B2C7EB204707F30F0741EA07470FFA87FB4FEA26490BFB09FB39B20FFA86FA01FB0AFA3F1431B207FB01B107FB19A74FEA6C0C0CEB6E0E6414090C1FFA8EFE0C
:4024400004EB604009044EEA004041EA1741013D42F8040C03F1040343F8081C02F10402B3D101980099029A022300F065FC0099029A0223039800F05FFC9DE80A0003EB65
:40248000C1069A1C32F9025CB3F90240B3F90400B3F906106D0064004000490022F8025C083323F8064C23F8040C23F8021CB34202F10802E6D105B0BDE8F08F022300F041
:4024C0003BFC03980099029A022305B0BDE8F04F00F032BCE0B5012A0E4605461F46018824D0B1F5807F13D008D8202931D045D940290DD080292CD08FB9E0BDB1F5806FC3
:4025000006D023D9B1F5006F23D0B1F5805FF3D130466A68012300F09DF8002FEDD03046A989AA68BDE8E04000F068B8B1F5807F1ED013D8202904D027D9402918D0802977
:40254000DAD130466A68FFF731FFD5E7B1F5007FD2D130466A68FFF795FECDE7B1F5806F06D00ED9B1F5006FEBD0B1F5805FC3D130466A68012300F0DFFBBDE71029BBD15F
:40258000C6E7B1F5007FDCD0B6E71029B4D1EFE74B1C012B98BF70472DE9F003911C9B08B1F80480B1F802900A8831F802CC8044814402448444D9F80070D8F800601568FC
:4025C000DCF80040C9F80060C8F80070CCF800501460D9F80470D8F804605568DCF80440C9F80460C8F80470CCF8045054600831013B7FF4D5AFBDE8F00370474B1C012B2D
:4026000098BF70472DE9F003911C9B08B1F80480B1F802900A8831F802CC00EB580800EB590900EB520200EB5C0CD9F80070D8F800601568DCF80040C9F80060C8F80070C5
:40264000CCF8005014600831013B7FF4DFAFBDE8F00370472DE9F00FA2B00991890821912090890082468A44209E0AEB010B03EB4300219D002459441992DF008000043647
:402680009B000394059406940A1D0BF1040B0AF1040A04950B9002960A970893199C52E0E91781F4FF4181F07F018DB2DDF814C02DB254F80C10284405140EB205FB06F675
:4026C0000FFA80FC0FB20CFB07F709140CFB116005FB0171000C000440EA114103984BF8041C215818140DB200FB05F51FB20EB207FB06F6091407FB115300FB01611B0C0F
:402700001B0443EA1143069D0299059FDDF80C9004980A9EDDF82080DDF82CC0043135444744E144013842F8043C02910AF1040A069505970BF1040BCDF80C9002F10402E3
:40274000049000F00D81DDF808805AF8045C52F8041C58F8040C5BF8043C45F34E0741F34E064FEA65484FEA614C40F34E05BFB2B6B247EA084746EA0C4643F34E01ADB2B5
:402780004FEA604845EA084889B24FEA634C47F34E0046F34E0341EA0C4C7F14761448F34E0180B29BB240EA074043EA06434FEA684889B207B241EA08414CF34E051EB241
:4027C0003E444FEA6C4C0FB2ADB2091445EA0C45079106F30F0C1B141FFA8CFC2EB203EB204303F30F034CEA0343DDF81CC0B8192D1400F30F0080B219B2AC440CF30F0CAC
:4028000040EA0C400FFA80FC4FEA610808EB6C084FEA634909EB60491FFA88F848EA0948DDF80890C1EB0C0C49F8048CDDF818801B1454F808100CF30F0C1FFA8CFCC3EB8B
:40284000204303F30F034CEA034318140FFA81FC00FB0CFC0FFA83F90FFA81F809FB08F8091409FB11C300FB01811B0C1B0443EA11435AF8040C4AF8043C52F804CC40F347
:402880004E034CF34E0189B29BB24FEA6C4C401441EA0C4C43EA00404CF34E0140F34E034FEA6C4C401489B29BB241EA0C4143EA00430FFA83FC08B2DDF81C90BE1B0914FC
:4028C000C0EB0C0006F30F0600F30F00B6B280B2C1EB2343C5EB090503F30F0305F30F0540EA034046EA05452F1406B2BB19D913B1EBE37F4FEA20402DB2C0EB050118BFF3
:40290000DB174FEAE13C1CBF83F4FF4383F07F03BCEBE17FC6EB070618BFC9174FEAE6371CBF81F4FF4181F07F01B7EBE67F18BFF6179BB289B218BF86F4FF46054409B266
:402940004FEA034318BF86F07F060B44E913B6B2B1EBE57F4FEA06407FF4A2AEADB2A5E621994346042940F26A811F9108910E468A46B60803EB4302209800274FEA830B96
:4029800006F1FF38DB004FEA860992004FEA8A0A1C931E961597CDF86C80CDF85C901D92189716971397CDF80CA0CDF868B014900346199E169D189FDDF85480179974593F
:4029C00056F80800F559DDF84C80099F0B44179A149E194447450A44029640F2078127144FEA20480FFA87FA0FFA88FB0697CDF81C80139FDDF820802E140FFA85FC0FFAC3
:402A000086F925B20596474406B2CDF83090CDF83CA0CDF848B0CDF828C0CDF82CC00D950E9510961196049700E00494DDF808901868D9F800500C68D2F800C02FB226B2B7
:402A40000FFA80FB0FFA8CF82D1407EB060A2414D8444FEA2C4C08F30F080AF30F0A1FFA88FB1FFA8AFA0CEB204805EB040908F30F0809F30F094BEA08484AEA094949F3D3
:402A80004E0B48F34E0A4FEA6949CAEB0B004FEA6848C8EB090C80B240EA0C40DA44DDF82CB04FEA204C1FFA8AFA0BFB0CFBCDF800A0DDF828A0C8440FFA80F90AFB09F971
:402AC000DDF830A000B20AFB10B0DDF800B0DDF814A04BEA08480AFB0C9C48F34E0ADDF808B04FEA6848000C1FFA8AFA4AEA084A0004CBF800A040EA1C4C1868C3F800C04E
:402B0000D2F800C00FFA80F90FFA8CF8BE1BC8EB09084FEA2C4C06F30F0608F30F08B6B21FFA88F82C1BCCEB204C04F30F040CF30F0C46EA044648EA0C4846F34E0B4FEA34
:402B4000684A761448F34E080BEB0A04CAEB0B0AC8EB060506EB08001FFA8AFAA4B244EA05444AEA0040DDF838C0119F261405140CFB06F907FB05F8DDF834A0DDF840B0E2
:402B80000FFA84FC07B20AFB0CFC0BFB07F7DDF83CA0DDF848B024B200B20AFB14940BFB1080DDF81C90DDF8188009FB057508FB06C6240C000C24040004DDF80CB044EA17
:402BC000164440EA1540DDF808A0099D049E0C60DDF820C0049CDA44B5421060CDF808A05B44644459445A443FF61FAFDDF84C90DDF858A0DDF860C01599149BDDF868B042
:402C00001C981D9A1B9C09F10109DA448444114404334C45CDF84C90CDF858A0CDF860C015911493BFF4C5AE1F9F1A9BBF08042F1F9704D91E9808900646824699E6209C18
:402C4000219904F11002234652F8109C5C68D3F80880DF680FFA88F60FFA89FC25B238B24FEA29494FEA28480CEB060A3F14C6EB0C0C0AF30F060CF30F0AB6B24FEA244C4E
:402C80001FFA8AFA2C18281A04F30F0400F30F00A5B280B209EB080BC8EB09040BF30F0B0CEB070846EA0B46C7EB0C0708F30F0807F30F0745EA084540EA074004F30F0418
:402CC0004AEA044444F34E0C46F34E0A45F34E0847146D140AEB080964147614C8EB0A0840F34E000CEB070AC7EB0C071FFA89F906EB050C1FFA88F8761B1FFA8AFA251A0E
:402D0000BFB2204448EA064649EA0C444AEA054547EA0040013942F8104C03F1100343F80C6C43F8085C43F8040C02F110028BD122B0BDE8F00F70472DE9F00FA4B00B91C7
:402D4000890823912290890082468A44229E0AEB010B03EB4300239D002459441B92DF00800004369B000594079408940A1D0BF1040B0AF1040A06950D9004960C970A93CC
:402D80001B9C54E0E91781F4FF4181F07F018DB2DDF81CC02DB254F80C10284406B20D1406FB05F60FFA80FC0FB20CFB07F7001409B200FB016100FB1570090C090441EAC6
:402DC000104105984BF8041C21581DB2081405FB00F51FB20EB207FB06F61B1409B203FB015103FB1063090C090441EA1343089D0499079FDDF8149006980C9EDDF8288026
:402E0000DDF834C0043135444744E144013842F8043C04910AF1040A089507970BF1040BCDF8149002F10402069000F00E81DDF810805AF8045C52F8041C58F8040C5BF829
:402E4000043C45F34E0741F34E064FEA65484FEA614C40F34E05BFB2B6B247EA084746EA0C4643F34E01ADB24FEA604845EA084889B24FEA634C47F34E0046F34E0341EA2C
:402E80000C4C7F14761448F34E0180B29BB240EA074043EA06434FEA684889B207B241EA08414CF34E051EB23E444FEA6C4C0FB2ADB2091445EA0C45099106F30F0C1B14ED
:402EC0001FFA8CFC2EB203EB204303F30F034CEA0343DDF824C0B8192D1400F30F0080B219B2AC440CF30F0C40EA0C400FFA80FC4FEA610808EB6C084FEA634909EB604922
:402F00001FFA88F848EA0948DDF81090C1EB0C0C49F8048CDDF820801B1454F808100CF30F0C1FFA8CFCC3EB204303F30F034CEA034308140FFA83FC0CFB00FC0FFA83F9E7
:402F40000FFA81F809FB08F81B1409B203FB01C103FB1083090C090441EA13435AF8040C4AF8043C52F804CC40F34E034CF34E0189B29BB24FEA6C4C401441EA0C4C43EA60
:402F800000404CF34E0140F34E034FEA6C4C401489B29BB241EA0C4143EA00430FFA83FC08B2DDF82490BE1B0914C0EB0C0006F30F0600F30F00B6B280B2C1EB2343C5EB26
:402FC000090503F30F0305F30F0540EA034046EA05452F1406B2BB1BD913B1EBE37F4FEA20402DB205EB000118BFDB174FEAE13C1CBF83F4FF4383F07F03BCEBE17F3E4473
:4030000018BFC9174FEAE6371CBF81F4FF4181F07F01B7EBE67F18BFF6179BB289B218BF86F4FF46C0EB050509B24FEA034318BF86F07F060B44E913B6B2B1EBE57F4FEA4C
:4030400006407FF49FAEADB2A2E623994346042940F2728121910A910E468B46B60803EB4302229800274FEA830C06F1FF384FEA860992004FEA8B0BDB0020961797CDF865
:403080007480CDF864901F921A9718971597CDF814B0CDF870C01E9316901B9E189D1A9FDDF85C801999169B745956F80800F559DDF854800B9F0B44199A169E1944474533
:4030C0000A44049640F20D812E1427140FFA86F90FFA87FBCDF83890CDF844B0DDF85490DDF828B04FEA20480FFA88FC079608972EB227B2CDF82480D9440FFA80F8CDF8FD
:4031000050C00C960D960F971097CDF84880CDF84C80CDF8189000E00694DDF810C01868DCF800500C68D2F800902FB226B20FFA80FB2D140FFA89FC07EB060A2414DC446B
:403140004FEA29490CF30F0CA8461FFA8CFB0AF30F0A1FFA8AFA09EB204CA0440CF30F0C08F30F084BEA0C4C4AEA08484CF34E0948F34E0AC9EB0A004FEA68484FEA6C4C07
:40318000CCEB080B80B240EA0B40DDF838B0019505B20BFB05FBCA44A9460C9DC44405FB09F9CDF80C90DDF8349000141FFA8AFA4AEA0C4A039DDDF81CC0CDF808B009FBD7
:4031C00000BB0CFB10504AF34E0CDDF810804FEA6A4A4FEA1B4B1FFA8CFC4CEA0A4C4FEA0B4BC8F800C04BEA104B1868C3F800B0D2F800C00FFA80F90FFA8CF8C8EB090811
:40320000DDF80490BE1B4FEA2C4C06F30F0608F30F08B6B21FFA88F8C4EB0904CCEB204C04F30F040CF30F0C46EA044648EA0C4846F34E0B4FEA684A761448F34E08CAEB2A
:403240000B0406EB0805A4B244EA0544DA44DDF844B0C8EB06000FFA84FC1FFA8AFA4AEA0040149DDDF83C800BFB0CFC07B226B208FB06F6DDF84890DDF840B005FB07F7EA
:40328000241405B209FB05F50BFB04CCDDF84C80DDF82090001408FB007709FB1464DDF824B04FEA1C4C0BFB10504FEA0C4C059D4CEA14443F0CDDF810C03F0447EA1040F6
:4032C000AC440C600A9E069CCDF810C010600B9FDDF818802B444745344429442A443FF61BAFDDF85490DDF860B01A98179A169CDDF870C01E991F9B1D9D09F10109E344B1
:4033000008441A4404344D45CDF85490CDF860B01A9017921694BFF4C0AEDDF884901C9B4FEA990948460428CDF8849004D920990A910E468B4691E6229C239904F1100221
:40334000234652F8109C5C68D3F80880DF680FFA88F60FFA89FC25B238B24FEA29494FEA28480CEB060A3F14C6EB0C0C0AF30F060CF30F0AB6B24FEA244C1FFA8AFA2C1827
:40338000281A04F30F0400F30F00A5B280B209EB080BC8EB09040BF30F0B0CEB070846EA0B46C7EB0C0708F30F0807F30F0745EA084540EA074004F30F044AEA044444F33F
:4033C0004E0C46F34E0A45F34E0847146D140AEB080964147614C8EB0A0840F34E00C7EB0C0A67441FFA89F906EB050C1FFA88F8761B1FFA8AFA2518BFB2201A48EA0646ED
:4034000049EA0C444AEA054547EA0040013942F8104C03F1100343F80C6C43F8085C43F8040C02F110028CD124B0BDE8F00F70472DE9F04F930883B0009280460E460193B2
:403440003FD005461F460C4695E8020808B200FB00F0AA68EB680FFA8BFC0CFB0CFC0FFA82FE09140EFB0EFE01FB010118B200FB00F04FEA2B4B0BFB0BCB121402FB02EA03
:403480001B1403FB03094814214600F031F8A11C4FEA6B4000F02CF8211D4FEA6A4000F027F8A11D4FEA694000F022F8013F05F1100504F10804C7D1019B08EB031806EBE9
:4034C000C306009B13F003040FD058F8043B31461AB202FB02F21B1403FB0320401400F007F8013C06F10206EFD103B0BDE8F08F0028F8B50E4667DDB0FA80F3DBB2113BF3
:403500009BB29DB213F001072DB216BF05F1FF3400FA05F400FA04F4A4B224B2204600F013F94FF0605100F063F9431028484FF08D41C01A00F05CF900F0AAFA00B200FB28
:4035400000F3621043F3CF3302FB03F343F3CF33C3F5405303FB00F040F34F3020F0030000FB00F343F3CF3303FB02F343F3CF33C3F5405303FB00F343F34F3323F0030327
:4035800003FB03F141F3CF3101FB02F242F3CF32C2F5405202FB03F343F34F3323F0030303FB04F444F3CF346400A4B257B905EBD5756D1024B244FA05F5ADB235800020BF
:4035C00040B2F8BD013DF2E700230B80FF20F7E7DF59375F80F0004002E000BF81F0004142001FBF5FEA410392EA030F7FEA226C7FEA236C6AD04FEA1262D2EB1363C1BFCD
:40360000D218414048404140B8BF5B42192B88BF704710F0004F40F4000020F07F4018BF404211F0004F41F4000121F07F4118BF494292EA030F3FD0A2F1010241FA03FCEF
:4036400010EB0C00C3F1200301FA03F100F0004302D5494260EB4000B0F5000F13D3B0F1807F06D340084FEA310102F10102FE2A51D2B1F1004F40EBC25008BF20F0010050
:4036800040EA03007047490040EB000010F4000FA2F10102EDD1B0FA80FCACF1080CB2EB0C0200FA0CF0AABF00EBC25052421843BCBFD0401843704792F0000F81F40001DA
:4036C00006BF80F400000132013BB5E74FEA41037FEA226C18BF7FEA236C21D092EA030F04D092F0000F08BF0846704790EA010F1CBF0020704712F07F4F04D1400028BF8B
:4037000040F00040704712F100723CBF00F50000704700F0004343F0FE4040F4000070477FEA226216BF08467FEA23630146420206BF5FEA412390EA010F40F480007047C6
:403740004FF0000304E000BF10F0004348BF40425FEA000C08BF704743F0964301464FF000001CE050EA010208BF70474FF000030AE000BF50EA010208BF704711F0004392
:4037800002D5404261EB41015FEA010C02BF84460146002043F0B64308BFA3F18053A3F50003BCFA8CF2083AA3EBC25310DB01FA02FC634400FA02FCC2F12002BCF1004F78
:4037C00020FA02F243EB020008BF20F00100704702F1200201FA02FCC2F1200250EA4C0021FA02F243EB020008BF20EADC7070474FF0FF0C1CEAD0521EBF1CEAD15392EA8B
:403800000C0F93EA0C0F6FD01A4480EA010C400218BF5FEA41211ED04FF0006343EA501043EA5111A0FB01310CF00040B1F5000F3EBF490041EAD3715B0040EA010062F105
:403840007F02FD2A1DD8B3F1004F40EBC25008BF20F00100704790F0000F0CF0004C08BF49024CEA502040EA51207F3AC2BFD2F1FF0340EAC250704740F400004FF000035A
:40388000013A5DDC12F1190FDCBF00F000407047C2F10002410021FA02F1C2F1200200FA02FC5FEA310040F1000053EA4C0308BF20EADC70704792F0000F00F0004C02BF7D
:4038C000400010F4000F013AF9D040EA0C0093F0000F01F0004C02BF490011F4000F013BF9D041EA0C018FE70CEAD15392EA0C0F18BF93EA0C0F0AD030F0004C18BF31F03D
:40390000004CD8D180EA010000F00040704790F0000F17BF90F0004F084691F0000F91F0004F14D092EA0C0F01D142020FD193EA0C0F03D14B0218BF084608D180EA0100CB
:4039400000F0004040F0FE4040F40000704740F0FE4040F4400070474FF0FF0C1CEAD0521EBF1CEAD15392EA0C0F93EA0C0F69D0A2EB030280EA010C49024FEA402037D050
:403980004FF0805343EA111143EA10130CF000408B4238BF5B0042F17D024FF4000C8B4224BF5B1A40EA0C00B3EB510F24BFA3EB510340EA5C00B3EB910F24BFA3EB910313
:4039C00040EA9C00B3EBD10F24BFA3EBD10340EADC001B0118BF5FEA1C1CE0D1FD2A3FF650AF8B4240EBC25008BF20F0010070470CF0004C4CEA50207F32C2BFD2F1FF033A
:403A000040EAC250704740F400004FF00003013A37E792F0000F00F0004C02BF400010F4000F013AF9D040EA0C0093F0000F01F0004C02BF490011F4000F013BF9D041EA8C
:403A40000C0195E70CEAD15392EA0C0F08D142027FF47DAF93EA0C0F7FF470AF084676E793EA0C0F04D14B023FF44CAF08466EE730F0004C18BF31F0004CCAD130F0004243
:403A80007FF45CAF31F000437FF43CAF5FE700BF4FEA4002B2F1FE4F0FD34FF09E03B3EB12620DD94FEA002343F0004310F0004F23FA02F018BF404270474FF00000704766
:403AC00012F1610F01D1420205D110F0004008BF6FF0004070474FF00000704770B50E4B0E4D0024ED1AAD101E46AC4204D056F8242090470134F8E700F0E4FD084D094B36
:403B00000024ED1AAD101E46AC4204D056F8242090470134F8E770BDD0460000D0460000D8460000D046000010B50023934203D0CC5CC4540133F9E710BD02440346934258
:403B400002D003F8011BFAE77047000000000000035B00402443004040000000105100401000305100404000C05100401000F05100401000000001400010001401400008ED
:403B800000400140000A004C0140000200500140200000002013002561178026010080260100802601008026E00E8026C20C8026020080066587186D6409183E0000802665
:403BC000032080262102187FE60E8026C80C8026000080066B87186D6A09183E00008026012080262102187F00000000000000000000000000000000000000000000000041
:403C00000000000000000000000000000000000000000000000000000000000000000000000000000000000000000000000000000000000000000000000000000000000084
:403C40000000000000000000000000000000000000000000000000000000000000000000000000000000000000000000000000000000000000000000000000000000000044
:403C80000000000000000000000000000000000000000000000000000000000000000000000000000000000000000000000000000000000000000000000000000000000004
:403CC00000000000000000000000000000000000000000000000000000000000000000000000000000000000000000000000000000000000000000000000000000000000C4
:403D00000000000000000000000000000000000000000000000000000000000000000000000000000000000000000000000000000000000000000000000000000000000083
:403D40000000000000000000000000000000000000000000000000000000000000000000000000000000000000000000000000000000000000000000000000000000000043
:403D80000000000000000000000000000000000000000000000000000000000000000000000000000000000000000000000000000000000000000000000000000000000003
:403DC00000000000000000000000000000000000000000000000000000000000000000000000000000000000000000000000000000000000000000000000000000000000C3
:403E00000000000000000000000000000000000000000000000000000000000000000000000000000000000000000000000000000000000000000000000000000000000082
:403E40000000000000000000000000000000000000000000000000000000000000000000000000000000000000000000000000000000000000000000000000000000000042
:403E8000000000000000000000000000000000000000000033020000DBF2FF00D124000006C4FF00292D000023370000AEFCFE000FFA01001D8CFD001C850100988C010074
:403EC0001F61F90001FC0B000497F200D5FA00001DF73700D5FA00000497F20001FC0B001F61F900988C01001C8501001D8CFD000FFA0100AEFCFE0023370000292D0000EE
:403F000006C4FF00D1240000DBF2FF0033020000E00200009A030000C5040000CB050000D7050000DC030000B0FEFF0036F5FF008AE6FF004BD2FF00D9B8FF00A09BFF00C3
:403F4000427DFF00B761FF003A4EFF000D49FF000E59FF001D85FF0065D3FF009648000021E7000098AE0100459B020003A6030074C4040087E9050051060700280B08004D
:403F8000DBE80800F7910900F0FB090008200A00F0FB0900F7910900DBE80800280B08005106070087E9050074C4040003A60300459B020098AE010021E70000964800002A
:403FC00065D3FF001D85FF000E59FF000D49FF003A4EFF00B761FF00427DFF00A09BFF00D9B8FF004BD2FF008AE6FF0036F5FF00B0FEFF00DC030000D7050000CB0500001B
:40400000C50400009A030000E00200000000000000000000000000000000000000000000000000000000000000000000000000000000000000000000000000000000000038
:404040000000000000000000000000000000000000000000000000000000000000000000000000000000000000000000000000000000000000000000000000000000000040
:4040800000000000000000000000000000000000000000001E0F00000000000000000000DD2E00009F0F00009F0F000000000000000000000000000000000000000000006C
:4040C000000000000000000000000000000000000000000021F8050144F80B4067F81B8081F80501A6F81901C2F807018561922109F9290121F9050188A2A2210000000055
:40410000000000000000000000000000000000000000000000000000000000000000000000000000000000000000000000000000000000000000000000000000000000007F
:40414000000000000000000000000000000000000000000000000000000000000000000000000000000000000000000000000000000000000000000000000000000000003F
:4041800000000000000000000000000000000000000000000000000000000000000000000000000000000000000000000000000000000000000000000000000000000000FF
:4041C000000000000000000000000000000000000000000000010000E4410000E4440000F0000000FF7F0000F67F2403D87F4706A77F6A09627F8B0C097FAB0F9D7EC8127B
:404200001D7EE2158A7DF818E37C0B1C297C191F5D7B23227D7A28258A79262884781F2B6C77112E4176FB300475DE33B573BA3655728C39E270563C5F6F173FCA6DCE41FA
:40424000246C7A446D6A1C47A668B449CF663F4CE864BF4EF2623351EC609B53D75EF555B45C4258825A825A4258B45CF555D75E9B53EC603351F262BF4EE8643F4CCF664B
:40428000B449A6681C476D6A7A44246CCE41CA6D173F5F6F563CE2708C395572BA36B573DE330475FB304176112E6C771F2B847826288A7928257D7A23225D7B191F297C16
:4042C0000B1CE37CF8188A7DE2151D7EC8129D7EAB0F097F8B0C627F6A09A77F4706D87F2403F67F0000FF7FDBFCF67FB8F9D87F95F6A77F74F3627F54F0097F37ED9D7E31
:404300001DEA1D7E07E78A7DF4E3E37CE6E0297CDCDD5D7BD7DA7D7AD9D78A79E0D48478EED16C7704CF417621CC047545C9B57373C65572A9C3E270E8C05F6F31BECA6D87
:4043400085BB246CE3B86D6A4BB6A668C0B3CF6640B1E864CCAEF26264ACEC600AAAD75EBDA7B45C7DA5825A4BA3425828A1F555139F9B530D9D3351179BBF4E30993F4C06
:404380005997B44992951C47DB937A443592CE41A090173F1D8F563CAA8D8C394A8CBA36FB8ADE33BE89FB309388112E7B871F2B7586262882852825A2842322D683191FB7
:4043C0001C830B1C7582F818E281E2156281C812F680AB0F9D808B0C58806A092780470609802403008000000980DBFC2780B8F9588095F69D8074F3F68054F0628137ED26
:40440000E2811DEA758207E71C83F4E3D683E6E0A284DCDD8285D7DA7586D9D77B87E0D49388EED1BE8904CFFB8A21CC4A8C45C9AA8D73C61D8FA9C3A090E8C0359231BE40
:40444000DB9385BB9295E3B859974BB63099C0B3179B40B10D9DCCAE139F64AC28A10AAA4BA3BDA77DA57DA5BDA74BA30AAA28A164AC139FCCAE0D9D40B1179BC0B330996F
:404480004BB65997E3B8929585BBDB9331BE3592E8C0A090A9C31D8F73C6AA8D45C94A8C21CCFB8A04CFBE89EED19388E0D47B87D9D77586D7DA8285DCDDA284E6E0D68324
:4044C000F4E31C8307E775821DEAE28137ED628154F0F68074F39D8095F65880B8F92780DBFC0980080000041000000218000006200000012800000530000003380000079B
:404500004000800048008004500080025800800660008001680080057000800378008007880040049000400298004006A0004001A8004005B0004003B8004007C800C004B7
:40454000D000C002D800C006E000C001E800C005F000C003F800C0070801200410012002180120062801200530012003380120074801A0045001A0025801A0066001A001C9
:404580006801A0057001A0037801A007880160049001600298016006A8016005B0016003B8016007C801E004D001E002D801E006E801E005F001E003F801E00708021004D9
:4045C000180210062802100530021003380210074802900450029002580290066802900570029003780290078802500498025006A8025005B0025003B8025007C802D0046E
:40460000D802D006E802D005F002D003F802D007080330041803300628033005380330074803B0045803B0066803B0057003B0037803B0078803700498037006A80370055B
:40464000B8037007C803F004D803F006E803F005F803F0071804080628040805380408074804880458048806680488057804880798044806A8044805B8044807D804C8069A
:40468000E804C805F804C80718052806380528075805A8066805A8057805A80798056806B8056807D805E806F805E807380618075806980678069807B8065807F806D80710
:4046C0007807B807F8B500BFF8BC08BC9E4670474D000000E9040000F8B500BFF8BC08BC9E46704729000000F84600000881FF1F30000000B048000000000000000200000C
:4047000001000000807F0000030700004033BB0388F400003F0000000000447A01FFFFFFFFFFFF0000000000000000000000000000000000000000000000000000000000CA
:404740000000000000000000000000000000000000000000000000000000000000000000000000000000000000000000000000000000000000000000000000000000000039
:4047800000000000000000000000000000000000000000000000000000000000000000000000000000000000000000000000000000000000000000000000000000000000F9
:4047C00000000000000000000000000000000000000000000000000000000000000000000000000000000000000000000000000000000000000000000000000000000000B9
:404800000000000000000000000000000000000000000000000000000000000000000000000000000000000000000000000000000000000000000000000000000000000078
:020000040003F7
:0200000480007A
:40000000025200400414014003150140021B014006400140164101400A42014005430140024401400145014003460140024701400248014001490140024C0140054D01408D
:400040000351014000CC0156B808BE04D804DF011C108C10EC10E010EC101304162039083E40C430CE601080132015081704282054805B245C206304662067029304950810
:400080009A20A480A880AA40C470CA40D4C0D6E0D8C009800B0244204A014F4097029820C240D080D23013409740A980AA01C4407C02DE019C0245089C02D0019C02A508B3
:4000C0002510C820B5109C02A5088C029C02B508E008EC080005100A122A000000FEFE00FE00010000FFFF000000000028001801000A00000001000000080000000900005D
:4001000000000000000000000000000000000000000000000000000000000000000000000000000000000000000000000000000000000000000000000000000000000000BF
:40014000000000000000000000000000000000000000000000000000000000000000000000000000000000000000000000000000000000000000000000000000000000007F
:40018000000000000000000000000000000000000000000000000000000000000000000000000000000000000000000000000000000000000000000000000000000000003F
:4001C00000000000000000000000000000000000000000000000000000000000000000000000000000000000000000000000000000000000000000000000000000000000FF
:0200000490006A
:0400000000004005B7
:0200000490105A
:04000000BC90ACAF55
:0200000490303A
:02000000EB56BD
:0200000490402A
:4000000000000000000000000000000000000000000000000000000000000000000000000000000000000000000000000000000000000000000000000000000000000000C0
:400040000000000000000000000000000000000000000000000000000000000000000000000000000000000000000000000000000000000000000000000000000000000080
:400080000000000000000000000000000000000000000000000000000000000000000000000000000000000000000000000000000000000000000000000000000000000040
:4000C0000000000000000000000000000000000000000000000000000000000000000000000000000000000000000000000000000000000000000000000000000000000000
:0200000490501A
:0C00000000012E12306900012E2D1BBFE4
:00000001FF